:040000000C948900D3
:100004000C9400000C9400000C9400000C9400006C
:100014000C9400000C9400000C9400000C9400005C
:100024000C9400000C9400000C9400000C9400004C
:100034000C9400000C9400000C9400000C9400003C
:100044000C9400000C9400000C9400000C9400002C
:10005400456D6164204B61766F6F7369003934318B
:1000640034303231323500486F737369656E20481D
:10007400617368656D690039343134303231333439
:100084000048616D6964204E617372003934313403
:10009400303231393100466172696261204D6F68D6
:1000A400616D6D616469003933313431393134390A
:1000B4000073746172740074656D70657475726533
:1000C4003D0001002D4E414E00494E46000080C0C7
:1000D4000D00600254000A006D02610010007702F6
:1000E4006B000A0087027B000B00910285000A0066
:1000F4009C0290001100A6029A000A00B702AB000D
:100104000100C102C6000200C502D2000000F8943A
:10011400EE27ECBBF1E0F5BFE5BF8DE0A2E0BB2725
:10012400ED938A95E9F780E098E0A0E6ED930197D6
:10013400E9F7E4EDF0E085919591009761F0A591E0
:10014400B59105901590BF01F00105900D920197AE
:10015400E1F7FB01F0CFEFE5EDBFE8E0EEBFC0E66D
:10016400D2E00C942501AA93E881E066E7B98BE11B
:100174008A95F1F7369A349BFECF349AE5B10C9404
:10018400C502E0E0EABBEBBBEFEFE7BBE0E0E8BBB6
:10019400E4BBE5BBE1BBE2BBE3BFE2BFECBFEFBD49
:1001A400EEBDEDBDECBDE7BDE6BDEBBDEABDE9BD11
:1001B400E8BDE2BDE5BDE4BDE3BDE9BFE5BFE4BF25
:1001C400EAB9E0E8E8B9E0E6E7B9E3E8E6B9E0E08F
:1001D400E0BFEDB9E6BFA0E10E9499020895BA9389
:1001E400AA930E945602AA81BB810E947702E0E092
:1001F400EA93A1E00E944902A881B9810E94770292
:10020400A0EDB7E00E9466030C940D03E0E6F2E073
:10021400FA93EA93ADE6B2E0E2DFE7E7F2E0FA93BD
:10022400EA93A7E8B2E0DBDFE1E9F2E0FA93EA93CC
:10023400ACE9B2E0D4DFE6EAF2E0FA93EA93A7EBA2
:10024400B2E0CDDF08952E979CDFA5EBB0E00E94CD
:100254008602DCDF0E945602A0E085DFFF276627C6
:1002640077270E94DC03EA87FB876C877D87AA8552
:10027400BB858C859D85E9E2FCE56FE07FE30E9408
:10028400B404EA87FB876C877D87ABEBB0E00E9400
:100294008602EA85FB856C857D850E943B05E1E04D
:1002A400EA93DE0115960E945C01DE010E9477024A
:1002B400D1CFFFCFBA93AA932497E0E0E883E983F0
:1002C400EA83EFE3EB831A930A93EB85FC85EF3F14
:1002D400AFEFFA0739F40E941C03A8ECB0E00E94C7
:1002E4000F03B1C0EF3FAFE7FA0739F40E941C03D4
:1002F400A9ECB0E00E940F03A6C0AC85AA2362F467
:10030400E985FA856B857C850E9470030E94210330
:100314000E942603EDE2EC93A885A73010F0E6E0F6
:10032400E8871885E12F1150E03039F00E942D0341
:100334000E9432030E943903F5CF0E943E030E94BB
:1003440016040E94210310E0E0E0F0E060E87FE39F
:100354000E9439030E943E030E94F90488F00E941F
:100364002D030E9447030E9439031F5F173238F0A0
:100374000E941C03ADECB0E00E940F0364C0EACFFE
:10038400103029F40E942603E0E3EC932FC0E12F00
:100394001150E03059F10E942D030E943203A0E075
:1003A400B0E080E09FE30E941604DF01CB010E94CD
:1003B400F8020E9439030E943E030E94B4040E9482
:1003C400A3030E2F0E942603E02FE05DEC93E02FA1
:1003D400F0E00E942D030E9427050E94DC030E9486
:1003E40066040E944E030E945303D1CFE885E03097
:1003F40031F10E942603EEE2EC93E885E150E887B0
:10040400EF5FE9F00E944E030E9447030E9421031C
:10041400E985FA856B857C850E94A3030E2F0E94D3
:100424002603E02FE05DEC93E02FF0E00E944E0302
:100434000E9427050E94DC030E945303DECFAE8195
:10044400BF81E0E0EC93198108812D960895AA9369
:10045400E8B3EF70AE2FE881E07FEA2BE8BB8DE0D4
:100464008A95F1F7C29A8DE08A95F1F7C2988DE0EA
:100474008A95F1F788C0AA93A881E9DFE881E2951B
:10048400E883A881E4DF85E88A95F1F77CC0AA9324
:10049400E881F0E0EB53FD4FE081A981AE0FEBDF83
:1004A4005980488022960895A2E00E945803ACE047
:1004B400E2DFA1E00E945803E0E04E2E5E2E089594
:1004C400AA93A881AA3011F0571448F0E0E0EA9307
:1004D4004394A42DDCDFA881AA3009F454C05394BA
:1004E400C09AA881C8DFC0984EC0BA93AA931A9341
:1004F400A981BA81ED91A983BA831E2FE03019F046
:10050400A12FDEDFF5CF10C0BA93AA931A93E98125
:10051400FA813196E983FA833197E4911E2FE03012
:1005240019F0A12FCDDFF3CF188123960895AA9354
:10053400E7B3E06FE7BBBA9AB89AB99AC298C09881
:10054400C1987880E881E058E093C702E881E054DC
:10055400E093C802A4E1B0E00E9466030E945E0337
:100564000E945E030E945E03A0E271DF88EC90E0CB
:100574000197F1F7A8E27FDFA4E07DDFA5E87BDF48
:10058400A6E079DF91DF219608950E9440057B81E2
:100594006A81F981E88177FB770F67FD7160972F96
:1005A4009E5781F078F0983190F4AA27BB278827CA
:1005B40008948795B795A7959A95D1F7EA23FB23D5
:1005C400682305C0E8947727EE27FF2766276F770F
:1005D400769508F4606877F9A991B9918991999110
:1005E400EA17FB076807790797FB08950E944005FF
:1005F4000E9431050E94C7020E94360519F40E9428
:100604002C0509C0E6F70E942C05A0E0B0E080E8C4
:100614009FE30E940F0424960895BA93AA93E99144
:10062400F991A991B991CD0105900D920020E1F7BE
:10063400FC010895EE81FF81FA93EA930895E98716
:10064400FA876B877C870895AE81BF811196AE834C
:10065400BF8311970895AA81BB818C819D810895E0
:10066400EDECFCEC6CEC7DE30E9466040895EA83F7
:10067400FB836C837D830895EA81FB816C817D819A
:10068400A985BA858B859C850895E0E0F0E060E259
:1006940071E40E9466040895A985BA858B859C85BA
:1006A40008950E9445050E940F04C9CF0E943D028F
:1006B400A3E0B0E00C946603A0E30E94290288EC56
:1006C40090E00197F1F70895109639F080ED97E0E6
:1006D4000197F1F7A8951197C9F7089530976040ED
:1006E400704009F070580895552342F4503811F4BD
:1006F400E0FF04C03196691F791F6BF050E857275B
:1007040011F45F93CFC05F3F31F0660F000C579533
:100714006795752F08955F9300200AF0CFC0C8C075
:1007240050E8192E1522880F991F9527550F879584
:1007340050E8072E0522660F771F7527550F67951A
:100744000895689401C0E8945F93F2DF703818F05C
:100754007F3F08F4A7C056E1571BAAF451955830BF
:100764000EF4593030F0EFEFFFEF6FEF7FE777F9DA
:100774001AC077275523B9F0EE0FFF1F661F771FA6
:100784005A95D1F710C07727583028F0EF2FF62F5D
:10079400672F5850F9CF552331F076956795F79523
:1007A400E7955A95D1F700200AF441D15F91089555
:1007B400689401C0E894309760407040B1F0002420
:1007C40026F0772312F4009432D1172E7EE1112003
:1007D40032F07A95EE0FFF1F661F111CF9CFEF2F31
:1007E400F62F612D5F938ADF5F9108954F93AF01D8
:1007F400FD01DA01AB01BC01CA01402D012C142E0C
:100804004F910895EA0FFB1F681F0895E095F09536
:100814006095EF5FFF4F6F4F08955F9381DF9038CE
:1008240071F150E8152604C05F937ADF903839F1EE
:10083400703821F1572F591B2BF112F4D7DFFACF5F
:10084400583118F0AA27BB278827583028F0AB2F37
:10085400B82F88275850F9CF552329F08695B79596
:10086400A7955A95D9F7502D512572F0CBDF38F45E
:100874006795F795E795739513F420C0B7DF3EDFCE
:100884005F910895D8F7FBCFEA1BFB0B680B51F07F
:1008940010F40094BBDF662392F3EE0FFF1F661F74
:1008A4007A95CBF7EE27FF27662777275F91089580
:1008B400EFEFFFEF6FE77FEF5F910895EFEFFFEF4B
:1008C4006FE77FE75F9108955F932ADF703851F3F4
:1008D400903841F301240894791F23F41CF3002079
:1008E4003AF3ECCF0F921F932F933F934F9311271B
:1008F40022279927689FA0018F9F302D410D591FF2
:100904006B9F300D411D591F8E9F27D0BF9F25D04F
:100914006A9F23D0BE9F1DD0AF9F1BD0AE9F110DE9
:10092400291F391F491F591FE32FF42F652F522FF9
:100934004F913F912F911F910F9066232AF0550FED
:10094400EE1FFF1F661F02C073954BF2CDDE5F9151
:100954000895100D211D391F02C0200D311D491F9E
:10096400591F08955F93DCDE703821F411200AF4D6
:100974009FCFA4CF903809F495CF01240894970B06
:100984001BF4D4F30020F3CF792F1F932F933F93BD
:100994004F9311241127222733274427552790E208
:1009A400AE17BF078607410730F0AE1BBF0B860B9F
:1009B400410B089401C08894551F221F331F111C3A
:1009C400AA1FBB1F881F441F9A9551F7F901612D77
:1009D4004F913F912F911F91662332F0550FEE1FD7
:1009E400FF1F661F7A9543F27FDE5F910895992376
:1009F4009AF0772342F0971748F029F4AE17BF070F
:100A0400860720F031F09894889408959894089477
:100A140008951894889408957723C2F7971798F344
:100A2400A9F7EA17FB07680788F399F3ECCFF09569
:100A340060957095E195FF4F6F4F7F4F0895FE2F9E
:100A4400FF0FFF0B6F2F7F2F08956F2F660F660B1D
:100A5400762F0895E881F9816A817B810895A881C0
:100A6400B9818A819B810895E883F9836A837B83B2
:100A740008957A936A93FA93EA9308959A938A93DA
:100A8400BA93AA930895182E862F612D192E972FA5
:100A9400712D1B2EBF2FF12D1A2EAE2FE12D08958F
:00000001FF
